{
    "contractName": "cryptocurrency_ico",
    "abi": [
        {
            "inputs": [
                {
                    "internalType": "address",
                    "name": "investor",
                    "type": "address"
                },
                {
                    "internalType": "uint256",
                    "name": "usd_invested",
                    "type": "uint256"
                }
            ],
            "name": "buy_cryptocurrency",
            "outputs": [],
            "stateMutability": "nonpayable",
            "type": "function"
        },
        {
            "inputs": [
                {
                    "internalType": "address",
                    "name": "investor",
                    "type": "address"
                }
            ],
            "name": "equity_in_cryptocurrency",
            "outputs": [
                {
                    "internalType": "uint256",
                    "name": "",
                    "type": "uint256"
                }
            ],
            "stateMutability": "nonpayable",
            "type": "function"
        },
        {
            "inputs": [
                {
                    "internalType": "address",
                    "name": "investor",
                    "type": "address"
                }
            ],
            "name": "equity_in_usd",
            "outputs": [
                {
                    "internalType": "uint256",
                    "name": "",
                    "type": "uint256"
                }
            ],
            "stateMutability": "nonpayable",
            "type": "function"
        },
        {
            "inputs": [],
            "name": "max_cryptocurrency",
            "outputs": [
                {
                    "internalType": "uint256",
                    "name": "",
                    "type": "uint256"
                }
            ],
            "stateMutability": "view",
            "type": "function"
        },
        {
            "inputs": [
                {
                    "internalType": "address",
                    "name": "investor",
                    "type": "address"
                },
                {
                    "internalType": "uint256",
                    "name": "cryptocurrency_sold",
                    "type": "uint256"
                }
            ],
            "name": "sell_cryptocurrency",
            "outputs": [],
            "stateMutability": "nonpayable",
            "type": "function"
        },
        {
            "inputs": [],
            "name": "total_cryptocurrency_bougth",
            "outputs": [
                {
                    "internalType": "uint256",
                    "name": "",
                    "type": "uint256"
                }
            ],
            "stateMutability": "view",
            "type": "function"
        },
        {
            "inputs": [],
            "name": "usd_to_cryptocurrency",
            "outputs": [
                {
                    "internalType": "uint256",
                    "name": "",
                    "type": "uint256"
                }
            ],
            "stateMutability": "view",
            "type": "function"
        }
    ],
    "bytecode": "6080604052620f42406000556103e8600155600060025534801561002257600080fd5b506103a2806100326000396000f3fe608060405234801561001057600080fd5b506004361061007d5760003560e01c8063b123cda21161005b578063b123cda2146100db578063b733b94c146100ee578063c11a52f6146100f7578063d34b35ad1461010057600080fd5b8063108ad8d41461008257806310c51c1b1461009d57806370e22341146100c6575b600080fd5b61008b60025481565b60405190815260200160405180910390f35b61008b6100ab36600461029a565b6001600160a01b031660009081526004602052604090205490565b6100d96100d43660046102bc565b610129565b005b6100d96100e93660046102bc565b6101b3565b61008b60005481565b61008b60015481565b61008b61010e36600461029a565b6001600160a01b031660009081526003602052604090205490565b6001600160a01b038216600090815260036020526040812080548392906101519084906102fc565b90915550506001600160a01b03821660009081526003602052604090205461017c906103e890610313565b6001600160a01b038316600090815260046020526040812091909155600280548392906101aa9084906102fc565b90915550505050565b80600054600254600154836101c89190610335565b6101d29190610354565b11156101dd57600080fd5b6000600154836101ed9190610335565b6001600160a01b03851660009081526003602052604081208054929350839290919061021a908490610354565b90915550506001600160a01b038416600090815260036020526040902054610245906103e890610313565b6001600160a01b03851660009081526004602052604081209190915560028054839290610273908490610354565b909155505050505050565b80356001600160a01b038116811461029557600080fd5b919050565b6000602082840312156102ac57600080fd5b6102b58261027e565b9392505050565b600080604083850312156102cf57600080fd5b6102d88361027e565b946020939093013593505050565b634e487b7160e01b600052601160045260246000fd5b60008282101561030e5761030e6102e6565b500390565b60008261033057634e487b7160e01b600052601260045260246000fd5b500490565b600081600019048311821515161561034f5761034f6102e6565b500290565b60008219821115610367576103676102e6565b50019056fea2646970667358221220d64d0c05f448ef1d5f073fd51122dd5c62ce9232cc0ae94a501377e1addba18164736f6c634300080d0033",
    "sourcePath": "/home/flooijdt/bin/Code/BlockchainA_Z/SmartContract/cryptocurrency_ico.sol",
    "compiler": {
        "name": "solc",
        "version": "0.8.13+commit.abaa5c0e"
    },
    "functionHashes": {
        "buy_cryptocurrency(address,uint256)": "b123cda2",
        "equity_in_cryptocurrency(address)": "d34b35ad",
        "equity_in_usd(address)": "10c51c1b",
        "max_cryptocurrency()": "b733b94c",
        "sell_cryptocurrency(address,uint256)": "70e22341",
        "total_cryptocurrency_bougth()": "108ad8d4",
        "usd_to_cryptocurrency()": "c11a52f6"
    },
    "gasEstimates": {
        "creation": {
            "codeDepositCost": "186000",
            "executionCost": "49450",
            "totalCost": "235450"
        },
        "external": {
            "buy_cryptocurrency(address,uint256)": "infinite",
            "equity_in_cryptocurrency(address)": "2591",
            "equity_in_usd(address)": "2548",
            "max_cryptocurrency()": "2305",
            "sell_cryptocurrency(address,uint256)": "infinite",
            "total_cryptocurrency_bougth()": "2284",
            "usd_to_cryptocurrency()": "2327"
        }
    }
}